{
  "contracts/Keyboards.sol": {
    "Keyboards": {
      "abi": [
        {
          "inputs": [
            {
              "internalType": "string",
              "name": "_description",
              "type": "string"
            }
          ],
          "name": "create",
          "outputs": [],
          "stateMutability": "nonpayable",
          "type": "function"
        },
        {
          "inputs": [
            {
              "internalType": "uint256",
              "name": "",
              "type": "uint256"
            }
          ],
          "name": "createdKeyboards",
          "outputs": [
            {
              "internalType": "string",
              "name": "",
              "type": "string"
            }
          ],
          "stateMutability": "view",
          "type": "function"
        },
        {
          "inputs": [],
          "name": "getKeyboards",
          "outputs": [
            {
              "internalType": "string[]",
              "name": "",
              "type": "string[]"
            }
          ],
          "stateMutability": "view",
          "type": "function"
        }
      ],
      "evm": {
        "bytecode": {
          "linkReferences": {},
          "object": "608060405234801561001057600080fd5b50610688806100206000396000f3fe608060405234801561001057600080fd5b50600436106100415760003560e01c806352810aa114610046578063778bc84714610064578063b6a46b3b14610094575b600080fd5b61004e6100b0565b60405161005b91906104e2565b60405180910390f35b61007e600480360381019061007991906103be565b610189565b60405161008b9190610504565b60405180910390f35b6100ae60048036038101906100a99190610379565b610235565b005b60606000805480602002602001604051908101604052809291908181526020016000905b828210156101805783829060005260206000200180546100f3906105c9565b80601f016020809104026020016040519081016040528092919081815260200182805461011f906105c9565b801561016c5780601f106101415761010080835404028352916020019161016c565b820191906000526020600020905b81548152906001019060200180831161014f57829003601f168201915b5050505050815260200190600101906100d4565b50505050905090565b6000818154811061019957600080fd5b9060005260206000200160009150905080546101b4906105c9565b80601f01602080910402602001604051908101604052809291908181526020018280546101e0906105c9565b801561022d5780601f106102025761010080835404028352916020019161022d565b820191906000526020600020905b81548152906001019060200180831161021057829003601f168201915b505050505081565b6000828290918060018154018082558091505060019003906000526020600020016000909192909192909192909192509190610272929190610277565b505050565b828054610283906105c9565b90600052602060002090601f0160209004810192826102a557600085556102ec565b82601f106102be57803560ff19168380011785556102ec565b828001600101855582156102ec579182015b828111156102eb5782358255916020019190600101906102d0565b5b5090506102f991906102fd565b5090565b5b808211156103165760008160009055506001016102fe565b5090565b60008083601f84011261032c57600080fd5b8235905067ffffffffffffffff81111561034557600080fd5b60208301915083600182028301111561035d57600080fd5b9250929050565b6000813590506103738161063b565b92915050565b6000806020838503121561038c57600080fd5b600083013567ffffffffffffffff8111156103a657600080fd5b6103b28582860161031a565b92509250509250929050565b6000602082840312156103d057600080fd5b60006103de84828501610364565b91505092915050565b60006103f38383610470565b905092915050565b600061040682610536565b6104108185610559565b93508360208202850161042285610526565b8060005b8581101561045e578484038952815161043f85826103e7565b945061044a8361054c565b925060208a01995050600181019050610426565b50829750879550505050505092915050565b600061047b82610541565b610485818561056a565b9350610495818560208601610596565b61049e8161062a565b840191505092915050565b60006104b482610541565b6104be818561057b565b93506104ce818560208601610596565b6104d78161062a565b840191505092915050565b600060208201905081810360008301526104fc81846103fb565b905092915050565b6000602082019050818103600083015261051e81846104a9565b905092915050565b6000819050602082019050919050565b600081519050919050565b600081519050919050565b6000602082019050919050565b600082825260208201905092915050565b600082825260208201905092915050565b600082825260208201905092915050565b6000819050919050565b60005b838110156105b4578082015181840152602081019050610599565b838111156105c3576000848401525b50505050565b600060028204905060018216806105e157607f821691505b602082108114156105f5576105f46105fb565b5b50919050565b7f4e487b7100000000000000000000000000000000000000000000000000000000600052602260045260246000fd5b6000601f19601f8301169050919050565b6106448161058c565b811461064f57600080fd5b5056fea2646970667358221220a156490b1aa7ce04cd1af4f116d1e4891666ab1763cbc42e59538030bdfa0b2364736f6c63430008040033",
          "opcodes": "PUSH1 0x80 PUSH1 0x40 MSTORE CALLVALUE DUP1 ISZERO PUSH2 0x10 JUMPI PUSH1 0x0 DUP1 REVERT JUMPDEST POP PUSH2 0x688 DUP1 PUSH2 0x20 PUSH1 0x0 CODECOPY PUSH1 0x0 RETURN INVALID PUSH1 0x80 PUSH1 0x40 MSTORE CALLVALUE DUP1 ISZERO PUSH2 0x10 JUMPI PUSH1 0x0 DUP1 REVERT JUMPDEST POP PUSH1 0x4 CALLDATASIZE LT PUSH2 0x41 JUMPI PUSH1 0x0 CALLDATALOAD PUSH1 0xE0 SHR DUP1 PUSH4 0x52810AA1 EQ PUSH2 0x46 JUMPI DUP1 PUSH4 0x778BC847 EQ PUSH2 0x64 JUMPI DUP1 PUSH4 0xB6A46B3B EQ PUSH2 0x94 JUMPI JUMPDEST PUSH1 0x0 DUP1 REVERT JUMPDEST PUSH2 0x4E PUSH2 0xB0 JUMP JUMPDEST PUSH1 0x40 MLOAD PUSH2 0x5B SWAP2 SWAP1 PUSH2 0x4E2 JUMP JUMPDEST PUSH1 0x40 MLOAD DUP1 SWAP2 SUB SWAP1 RETURN JUMPDEST PUSH2 0x7E PUSH1 0x4 DUP1 CALLDATASIZE SUB DUP2 ADD SWAP1 PUSH2 0x79 SWAP2 SWAP1 PUSH2 0x3BE JUMP JUMPDEST PUSH2 0x189 JUMP JUMPDEST PUSH1 0x40 MLOAD PUSH2 0x8B SWAP2 SWAP1 PUSH2 0x504 JUMP JUMPDEST PUSH1 0x40 MLOAD DUP1 SWAP2 SUB SWAP1 RETURN JUMPDEST PUSH2 0xAE PUSH1 0x4 DUP1 CALLDATASIZE SUB DUP2 ADD SWAP1 PUSH2 0xA9 SWAP2 SWAP1 PUSH2 0x379 JUMP JUMPDEST PUSH2 0x235 JUMP JUMPDEST STOP JUMPDEST PUSH1 0x60 PUSH1 0x0 DUP1 SLOAD DUP1 PUSH1 0x20 MUL PUSH1 0x20 ADD PUSH1 0x40 MLOAD SWAP1 DUP2 ADD PUSH1 0x40 MSTORE DUP1 SWAP3 SWAP2 SWAP1 DUP2 DUP2 MSTORE PUSH1 0x20 ADD PUSH1 0x0 SWAP1 JUMPDEST DUP3 DUP3 LT ISZERO PUSH2 0x180 JUMPI DUP4 DUP3 SWAP1 PUSH1 0x0 MSTORE PUSH1 0x20 PUSH1 0x0 KECCAK256 ADD DUP1 SLOAD PUSH2 0xF3 SWAP1 PUSH2 0x5C9 JUMP JUMPDEST DUP1 PUSH1 0x1F ADD PUSH1 0x20 DUP1 SWAP2 DIV MUL PUSH1 0x20 ADD PUSH1 0x40 MLOAD SWAP1 DUP2 ADD PUSH1 0x40 MSTORE DUP1 SWAP3 SWAP2 SWAP1 DUP2 DUP2 MSTORE PUSH1 0x20 ADD DUP3 DUP1 SLOAD PUSH2 0x11F SWAP1 PUSH2 0x5C9 JUMP JUMPDEST DUP1 ISZERO PUSH2 0x16C JUMPI DUP1 PUSH1 0x1F LT PUSH2 0x141 JUMPI PUSH2 0x100 DUP1 DUP4 SLOAD DIV MUL DUP4 MSTORE SWAP2 PUSH1 0x20 ADD SWAP2 PUSH2 0x16C JUMP JUMPDEST DUP3 ADD SWAP2 SWAP1 PUSH1 0x0 MSTORE PUSH1 0x20 PUSH1 0x0 KECCAK256 SWAP1 JUMPDEST DUP2 SLOAD DUP2 MSTORE SWAP1 PUSH1 0x1 ADD SWAP1 PUSH1 0x20 ADD DUP1 DUP4 GT PUSH2 0x14F JUMPI DUP3 SWAP1 SUB PUSH1 0x1F AND DUP3 ADD SWAP2 JUMPDEST POP POP POP POP POP DUP2 MSTORE PUSH1 0x20 ADD SWAP1 PUSH1 0x1 ADD SWAP1 PUSH2 0xD4 JUMP JUMPDEST POP POP POP POP SWAP1 POP SWAP1 JUMP JUMPDEST PUSH1 0x0 DUP2 DUP2 SLOAD DUP2 LT PUSH2 0x199 JUMPI PUSH1 0x0 DUP1 REVERT JUMPDEST SWAP1 PUSH1 0x0 MSTORE PUSH1 0x20 PUSH1 0x0 KECCAK256 ADD PUSH1 0x0 SWAP2 POP SWAP1 POP DUP1 SLOAD PUSH2 0x1B4 SWAP1 PUSH2 0x5C9 JUMP JUMPDEST DUP1 PUSH1 0x1F ADD PUSH1 0x20 DUP1 SWAP2 DIV MUL PUSH1 0x20 ADD PUSH1 0x40 MLOAD SWAP1 DUP2 ADD PUSH1 0x40 MSTORE DUP1 SWAP3 SWAP2 SWAP1 DUP2 DUP2 MSTORE PUSH1 0x20 ADD DUP3 DUP1 SLOAD PUSH2 0x1E0 SWAP1 PUSH2 0x5C9 JUMP JUMPDEST DUP1 ISZERO PUSH2 0x22D JUMPI DUP1 PUSH1 0x1F LT PUSH2 0x202 JUMPI PUSH2 0x100 DUP1 DUP4 SLOAD DIV MUL DUP4 MSTORE SWAP2 PUSH1 0x20 ADD SWAP2 PUSH2 0x22D JUMP JUMPDEST DUP3 ADD SWAP2 SWAP1 PUSH1 0x0 MSTORE PUSH1 0x20 PUSH1 0x0 KECCAK256 SWAP1 JUMPDEST DUP2 SLOAD DUP2 MSTORE SWAP1 PUSH1 0x1 ADD SWAP1 PUSH1 0x20 ADD DUP1 DUP4 GT PUSH2 0x210 JUMPI DUP3 SWAP1 SUB PUSH1 0x1F AND DUP3 ADD SWAP2 JUMPDEST POP POP POP POP POP DUP2 JUMP JUMPDEST PUSH1 0x0 DUP3 DUP3 SWAP1 SWAP2 DUP1 PUSH1 0x1 DUP2 SLOAD ADD DUP1 DUP3 SSTORE DUP1 SWAP2 POP POP PUSH1 0x1 SWAP1 SUB SWAP1 PUSH1 0x0 MSTORE PUSH1 0x20 PUSH1 0x0 KECCAK256 ADD PUSH1 0x0 SWAP1 SWAP2 SWAP3 SWAP1 SWAP2 SWAP3 SWAP1 SWAP2 SWAP3 SWAP1 SWAP2 SWAP3 POP SWAP2 SWAP1 PUSH2 0x272 SWAP3 SWAP2 SWAP1 PUSH2 0x277 JUMP JUMPDEST POP POP POP JUMP JUMPDEST DUP3 DUP1 SLOAD PUSH2 0x283 SWAP1 PUSH2 0x5C9 JUMP JUMPDEST SWAP1 PUSH1 0x0 MSTORE PUSH1 0x20 PUSH1 0x0 KECCAK256 SWAP1 PUSH1 0x1F ADD PUSH1 0x20 SWAP1 DIV DUP2 ADD SWAP3 DUP3 PUSH2 0x2A5 JUMPI PUSH1 0x0 DUP6 SSTORE PUSH2 0x2EC JUMP JUMPDEST DUP3 PUSH1 0x1F LT PUSH2 0x2BE JUMPI DUP1 CALLDATALOAD PUSH1 0xFF NOT AND DUP4 DUP1 ADD OR DUP6 SSTORE PUSH2 0x2EC JUMP JUMPDEST DUP3 DUP1 ADD PUSH1 0x1 ADD DUP6 SSTORE DUP3 ISZERO PUSH2 0x2EC JUMPI SWAP2 DUP3 ADD JUMPDEST DUP3 DUP2 GT ISZERO PUSH2 0x2EB JUMPI DUP3 CALLDATALOAD DUP3 SSTORE SWAP2 PUSH1 0x20 ADD SWAP2 SWAP1 PUSH1 0x1 ADD SWAP1 PUSH2 0x2D0 JUMP JUMPDEST JUMPDEST POP SWAP1 POP PUSH2 0x2F9 SWAP2 SWAP1 PUSH2 0x2FD JUMP JUMPDEST POP SWAP1 JUMP JUMPDEST JUMPDEST DUP1 DUP3 GT ISZERO PUSH2 0x316 JUMPI PUSH1 0x0 DUP2 PUSH1 0x0 SWAP1 SSTORE POP PUSH1 0x1 ADD PUSH2 0x2FE JUMP JUMPDEST POP SWAP1 JUMP JUMPDEST PUSH1 0x0 DUP1 DUP4 PUSH1 0x1F DUP5 ADD SLT PUSH2 0x32C JUMPI PUSH1 0x0 DUP1 REVERT JUMPDEST DUP3 CALLDATALOAD SWAP1 POP PUSH8 0xFFFFFFFFFFFFFFFF DUP2 GT ISZERO PUSH2 0x345 JUMPI PUSH1 0x0 DUP1 REVERT JUMPDEST PUSH1 0x20 DUP4 ADD SWAP2 POP DUP4 PUSH1 0x1 DUP3 MUL DUP4 ADD GT ISZERO PUSH2 0x35D JUMPI PUSH1 0x0 DUP1 REVERT JUMPDEST SWAP3 POP SWAP3 SWAP1 POP JUMP JUMPDEST PUSH1 0x0 DUP2 CALLDATALOAD SWAP1 POP PUSH2 0x373 DUP2 PUSH2 0x63B JUMP JUMPDEST SWAP3 SWAP2 POP POP JUMP JUMPDEST PUSH1 0x0 DUP1 PUSH1 0x20 DUP4 DUP6 SUB SLT ISZERO PUSH2 0x38C JUMPI PUSH1 0x0 DUP1 REVERT JUMPDEST PUSH1 0x0 DUP4 ADD CALLDATALOAD PUSH8 0xFFFFFFFFFFFFFFFF DUP2 GT ISZERO PUSH2 0x3A6 JUMPI PUSH1 0x0 DUP1 REVERT JUMPDEST PUSH2 0x3B2 DUP6 DUP3 DUP7 ADD PUSH2 0x31A JUMP JUMPDEST SWAP3 POP SWAP3 POP POP SWAP3 POP SWAP3 SWAP1 POP JUMP JUMPDEST PUSH1 0x0 PUSH1 0x20 DUP3 DUP5 SUB SLT ISZERO PUSH2 0x3D0 JUMPI PUSH1 0x0 DUP1 REVERT JUMPDEST PUSH1 0x0 PUSH2 0x3DE DUP5 DUP3 DUP6 ADD PUSH2 0x364 JUMP JUMPDEST SWAP2 POP POP SWAP3 SWAP2 POP POP JUMP JUMPDEST PUSH1 0x0 PUSH2 0x3F3 DUP4 DUP4 PUSH2 0x470 JUMP JUMPDEST SWAP1 POP SWAP3 SWAP2 POP POP JUMP JUMPDEST PUSH1 0x0 PUSH2 0x406 DUP3 PUSH2 0x536 JUMP JUMPDEST PUSH2 0x410 DUP2 DUP6 PUSH2 0x559 JUMP JUMPDEST SWAP4 POP DUP4 PUSH1 0x20 DUP3 MUL DUP6 ADD PUSH2 0x422 DUP6 PUSH2 0x526 JUMP JUMPDEST DUP1 PUSH1 0x0 JUMPDEST DUP6 DUP2 LT ISZERO PUSH2 0x45E JUMPI DUP5 DUP5 SUB DUP10 MSTORE DUP2 MLOAD PUSH2 0x43F DUP6 DUP3 PUSH2 0x3E7 JUMP JUMPDEST SWAP5 POP PUSH2 0x44A DUP4 PUSH2 0x54C JUMP JUMPDEST SWAP3 POP PUSH1 0x20 DUP11 ADD SWAP10 POP POP PUSH1 0x1 DUP2 ADD SWAP1 POP PUSH2 0x426 JUMP JUMPDEST POP DUP3 SWAP8 POP DUP8 SWAP6 POP POP POP POP POP POP SWAP3 SWAP2 POP POP JUMP JUMPDEST PUSH1 0x0 PUSH2 0x47B DUP3 PUSH2 0x541 JUMP JUMPDEST PUSH2 0x485 DUP2 DUP6 PUSH2 0x56A JUMP JUMPDEST SWAP4 POP PUSH2 0x495 DUP2 DUP6 PUSH1 0x20 DUP7 ADD PUSH2 0x596 JUMP JUMPDEST PUSH2 0x49E DUP2 PUSH2 0x62A JUMP JUMPDEST DUP5 ADD SWAP2 POP POP SWAP3 SWAP2 POP POP JUMP JUMPDEST PUSH1 0x0 PUSH2 0x4B4 DUP3 PUSH2 0x541 JUMP JUMPDEST PUSH2 0x4BE DUP2 DUP6 PUSH2 0x57B JUMP JUMPDEST SWAP4 POP PUSH2 0x4CE DUP2 DUP6 PUSH1 0x20 DUP7 ADD PUSH2 0x596 JUMP JUMPDEST PUSH2 0x4D7 DUP2 PUSH2 0x62A JUMP JUMPDEST DUP5 ADD SWAP2 POP POP SWAP3 SWAP2 POP POP JUMP JUMPDEST PUSH1 0x0 PUSH1 0x20 DUP3 ADD SWAP1 POP DUP2 DUP2 SUB PUSH1 0x0 DUP4 ADD MSTORE PUSH2 0x4FC DUP2 DUP5 PUSH2 0x3FB JUMP JUMPDEST SWAP1 POP SWAP3 SWAP2 POP POP JUMP JUMPDEST PUSH1 0x0 PUSH1 0x20 DUP3 ADD SWAP1 POP DUP2 DUP2 SUB PUSH1 0x0 DUP4 ADD MSTORE PUSH2 0x51E DUP2 DUP5 PUSH2 0x4A9 JUMP JUMPDEST SWAP1 POP SWAP3 SWAP2 POP POP JUMP JUMPDEST PUSH1 0x0 DUP2 SWAP1 POP PUSH1 0x20 DUP3 ADD SWAP1 POP SWAP2 SWAP1 POP JUMP JUMPDEST PUSH1 0x0 DUP2 MLOAD SWAP1 POP SWAP2 SWAP1 POP JUMP JUMPDEST PUSH1 0x0 DUP2 MLOAD SWAP1 POP SWAP2 SWAP1 POP JUMP JUMPDEST PUSH1 0x0 PUSH1 0x20 DUP3 ADD SWAP1 POP SWAP2 SWAP1 POP JUMP JUMPDEST PUSH1 0x0 DUP3 DUP3 MSTORE PUSH1 0x20 DUP3 ADD SWAP1 POP SWAP3 SWAP2 POP POP JUMP JUMPDEST PUSH1 0x0 DUP3 DUP3 MSTORE PUSH1 0x20 DUP3 ADD SWAP1 POP SWAP3 SWAP2 POP POP JUMP JUMPDEST PUSH1 0x0 DUP3 DUP3 MSTORE PUSH1 0x20 DUP3 ADD SWAP1 POP SWAP3 SWAP2 POP POP JUMP JUMPDEST PUSH1 0x0 DUP2 SWAP1 POP SWAP2 SWAP1 POP JUMP JUMPDEST PUSH1 0x0 JUMPDEST DUP4 DUP2 LT ISZERO PUSH2 0x5B4 JUMPI DUP1 DUP3 ADD MLOAD DUP2 DUP5 ADD MSTORE PUSH1 0x20 DUP2 ADD SWAP1 POP PUSH2 0x599 JUMP JUMPDEST DUP4 DUP2 GT ISZERO PUSH2 0x5C3 JUMPI PUSH1 0x0 DUP5 DUP5 ADD MSTORE JUMPDEST POP POP POP POP JUMP JUMPDEST PUSH1 0x0 PUSH1 0x2 DUP3 DIV SWAP1 POP PUSH1 0x1 DUP3 AND DUP1 PUSH2 0x5E1 JUMPI PUSH1 0x7F DUP3 AND SWAP2 POP JUMPDEST PUSH1 0x20 DUP3 LT DUP2 EQ ISZERO PUSH2 0x5F5 JUMPI PUSH2 0x5F4 PUSH2 0x5FB JUMP JUMPDEST JUMPDEST POP SWAP2 SWAP1 POP JUMP JUMPDEST PUSH32 0x4E487B7100000000000000000000000000000000000000000000000000000000 PUSH1 0x0 MSTORE PUSH1 0x22 PUSH1 0x4 MSTORE PUSH1 0x24 PUSH1 0x0 REVERT JUMPDEST PUSH1 0x0 PUSH1 0x1F NOT PUSH1 0x1F DUP4 ADD AND SWAP1 POP SWAP2 SWAP1 POP JUMP JUMPDEST PUSH2 0x644 DUP2 PUSH2 0x58C JUMP JUMPDEST DUP2 EQ PUSH2 0x64F JUMPI PUSH1 0x0 DUP1 REVERT JUMPDEST POP JUMP INVALID LOG2 PUSH5 0x6970667358 0x22 SLT KECCAK256 LOG1 JUMP 0x49 SIGNEXTEND BYTE 0xA7 0xCE DIV 0xCD BYTE DELEGATECALL CALL AND 0xD1 0xE4 DUP10 AND PUSH7 0xAB1763CBC42E59 MSTORE8 DUP1 ADDRESS 0xBD STATICCALL SIGNEXTEND 0x23 PUSH5 0x736F6C6343 STOP ADDMOD DIV STOP CALLER "
        },
        "methodIdentifiers": {
          "create(string)": "b6a46b3b",
          "createdKeyboards(uint256)": "778bc847",
          "getKeyboards()": "52810aa1"
        }
      }
    }
  }
}